:100000000C9446000C94FC000C94FC000C94FC0036
:100010000C94FC000C94FC000C94FC000C94FC0070
:100020000C94FC000C94FC000C94FC000C94FC0060
:100030000C94FC000C94FC000C94FC000C94FC0050
:100040000C94FC000C94FC000C94FC000C94FC0040
:100050000C94FC000C94FC000C94FC000C94FC0030
:100060000C94FC000C94FC000C94FC000C94FC0020
:100070000C94FC000C94FC000C94FC000C94FC0010
:100080000C94FC000C94FC000C94FC0011241FBE8A
:10009000CFEFD0E1DEBFCDBF0E9473000C945000C3
:0400A000F894FFCF02
:1000A400CF938FEF81BB8ABB15BA1BBAC0E2C5BB25
:1000B4000E948C00C5BB0E948C0080E885BB0E9416
:1000C4008C0015BA0E948C0080EF85BB0E948C00C6
:1000D40015BA0E948C0080E685BB0E948C00CF91EB
:0200E40008957D
:1000E6000E94EC008FEF8ABB87BB81BB1092610038
:1000F60081E082BB0E94F70085B190E0982F8827A7
:1001060024B1822B0E94D20084E690E00E94C300B4
:02011600F3CF25
:100118008BB380648BBB8FEC97E00197F1F700C03D
:1001280000008BB38F7B8BBB8FEC97E00197F1F7C7
:0601380000C00000089564
:10013E00CF93C82F85BB8BB380618BBB0E948C0085
:10014E00C295C07FC5BB8BB380618BBB0E948C00F8
:04015E00CF910895A0
:10016200CF93C82F85BB8BB38F7E8BBB0E948C0035
:10017200C295C07FC5BB8BB38F7E8BBB0E948C00A8
:04018200CF9108957C
:1001860020E030E008C0EFECF7E03197F1F700C06F
:0E01960000002F5F3F4F28173907ACF3089584
:1001A400CF93DF93EC0103C00E949F0021968881C6
:0A01B4008111FACFDF91CF91089579
:1001BE0081E00E94B1008FE99FE00197F1F700C046
:0A01CE00000080E80E94B1000895CF
:1001D8000E9452008FE19EE40197F1F700C00000F1
:0601E8000E94DF000895F3
:0A01EE0081E687B986EE86B9089510
:0401F8000C94000063
:00000001FF
