:100000000C9455000C94E0050C94E0050C94E0056C
:100010000C94E0050C94E0050C94E0050C94E005CC
:100020000C94E0050C94E0050C94E0050C94E005BC
:100030000C94E0050C94E0050C94E0050C94E005AC
:100040000C94BA050C94E0050C94E0050C94E005C2
:100050000C94E0050C94A0030C94E0050C94E005CE
:100060000C94E0050C94E0050C94E0050C94E0057C
:100070000C94E0050C94E0050C94E0050C94E0056C
:100080000C94E0050C94E0050C94E00501000108D7
:100090008001080110000BC401100112800112013F
:1000A00014000BCC0114011A800011241FBECFEFE5
:1000B000D0E1DEBFCDBFECE8F0E040E019C0B79181
:1000C000A79137912791079107FD0EC097918791CE
:1000D000EF01F92FE82F0BBF07900D92A217B3077E
:1000E000D9F7FE011BBE04C01D92A217B307E1F7AA
:1000F000E93AF40721F70E94E6030C947F00F89494
:02010000FFCF2F
:1001020054726967676572656400633A2564206C9E
:0A0112003A25642C20696E25640074
:10011C002F923F924F926F927F928F929F92AF92BB
:10012C00BF92CF92DF92EF92FF920F931F93CF93D8
:10013C00DF93CDB7DEB762970FB6F894DEBF0FBE74
:10014C00CDBF6C013A01862E7901FC011086178215
:10015C00848181FFEBC19E012F5F3F4F3D872C8730
:10016C00C901A0E8888B998BAA8B9FE3992EF30188
:10017C00582D0E94CB05862F662309F4D3C1482D38
:10018C0093012F5F3F4F4F4F653219F03901842E89
:10019C000BC0F901542F0E94CB05862F92E0690EFB
:1001AC00711C811C653229F4B60190E00E94280470
:1001BC00DECFB12C00E010E01032A0F48B3269F0ED
:1001CC0030F4803259F0833269F410612CC08D32D6
:1001DC0039F0803339F4116026C01260146023C0EA
:1001EC00186021C017FD2AC090ED980F9A3078F452
:1001FC0016FF06C0AAE0BA9E900D1124B92E13C0AA
:10020C00EAE00E9F900D1124092F10620CC08E3263
:10021C0021F416FD87C1106406C08C3611F41068E9
:10022C0002C0883659F4F301582D0E94CB05862F55
:10023C00FFEF6F1A7F0A8F0A6111BECF982F9F7D37
:10024C009554933028F424E0E20EF11C99820FC0EF
:10025C00833631F0833791F0833509F064C027C0C1
:10026C00F7018081898397012E5F3F4F79012888A0
:10027C0039884A88AA24A394B12C17C0A7014D5FD2
:10028C005F4F5F874E87F70120803180428016FFD9
:10029C0003C04B2D50E002C04FEF5FEF842DB10136
:1002AC000E94F7045C01EE84FF841F7718C097014D
:1002BC002D5F3F4F3F872E87F70120803180428092
:1002CC0016FF03C04B2D50E002C04FEF5FEF842DA3
:1002DC00B1010E94F7045C011068EE84FF8413FDE9
:1002EC001EC0802F90E0A816B906C8F4B60180E2B3
:1002FC0090E00E9428040150F4CFF101542D0E948B
:10030C00CB05862FFFEF2F1A3F0A4F0AB60190E05C
:10031C000E9428040111015021E0A21AB108A11475
:10032C00B10459F7F5C0843611F0893671F5F7012F
:10033C0017FF08C0608171818281938197012C5FC6
:10034C003F4F09C060817181072E000C880B990BFF
:10035C0097012E5F3F4F79011F76312E97FF0AC010
:10036C0090958095709561957F4F8F4F9F4F312F52
:10037C003068332E2AE030E0AE014F5F5F4F0E94B1
:10038C004203482E4C85441A4AC0853729F41F7EF7
:10039C00A12E2AE030E025C0512F597FA52E8F3693
:1003AC00C1F018F4883579F0BDC0803719F0883762
:1003BC0021F0B8C0852F8061A82EA4FE0DC09A2D07
:1003CC009460A92E09C014FF0AC0A52FA660AA2EFE
:1003DC0006C028E030E005C020E130E002C020E19A
:1003EC0032E0F701A7FE08C06081718182819381A0
:1003FC00A7014C5F5F4F07C06081718180E090E086
:10040C00A7014E5F5F4F7A01AE014F5F5F4F0E94B5
:10041C004203482E5C85451A8A2D8F77382E36FE7E
:10042C000DC0932D9E7FA92E4B1458F434FE0BC097
:10043C0032FC09C0A32DAE7EAA2E05C0142DA32C10
:10044C0003C0142D01C01B2DA4FE0EC0FE01E40D33
:10045C00F11D8081803321F4EA2DE97EAE2E08C097
:10046C00A2FE05C01E5F04C08A2D867809F01F5FAE
:10047C00A3FC11C0A0FE06C0101788F4040DB02E0A
:10048C00B11A0EC0101760F4B60180E290E00E9421
:10049C0028041F5FF7CF101718F4011B02C0B42CEF
:1004AC0000E0A4FE10C0B60180E390E00E94280496
:1004BC00A2FE17C0A1FC03C088E790E002C088E54B
:1004CC0090E0B6010CC08A2D867859F0A1FE02C0CE
:1004DC008BE201C080E2A7FC8DE2B60190E00E94A5
:1004EC0028044B1438F4B60180E390E00E942804F1
:1004FC00BA94F7CF4A94E1E0F0E0EC0FFD1FE40D65
:10050C00F11D8081B60190E00E9428044110F2CFC9
:10051C00002309F42CCEB60180E290E00E9428045E
:10052C000150F6CFF6018781908502C08FEF9FEFC7
:10053C0062960FB6F894DEBF0FBECDBFDF91CF91A0
:10054C001F910F91FF90EF90DF90CF90BF90AF90E5
:10055C009F908F907F906F904F903F902F90089529
:10056C0089B32091120130911301232B69F482FF7E
:10057C0082C081E090E0909313018093120184E992
:10058C0094E00E941305089580FF35C080911601F8
:10059C0090911701892BF1F0809114019091150124
:1005AC00843091051CF00E94D80408951092170114
:1005BC0010921601FC01EE0FFF1FE050FF4F20912F
:1005CC001801309119013183208301969093150104
:1005DC0080931401809118019091190101969093C8
:1005EC001901809318010A970CF445C01092190157
:1005FC0010921801089581FF38C0809116019091D6
:10060C001701019701F1809114019091150184302B
:10061C0091051CF00E94D804089521E030E030933D
:10062C00170120931601FC01EE0FFF1FE050FF4F46
:10063C0020911801309119013183208301969093F8
:10064C001501809314018091180190911901019763
:10065C00909319018093180199236CF489E090E030
:10066C009093190180931801089582FF04C0109291
:08067C0015011092140108950C
:10068400FA01AA27283051F1203181F1E8946F93BF
:100694006E7F6E5F7F4F8F4F9F4FAF4FB1E03ED065
:1006A400B4E03CD0670F781F891F9A1FA11D680F03
:1006B400791F8A1F911DA11D6A0F711D811D911D36
:1006C400A11D20D009F468943F912AE0269F1124AB
:1006D4003019305D3193DEF6CF010895462F47700F
:1006E400405D4193B3E00FD0C9F7F6CF462F4F706A
:1006F400405D4A3318F0495D31FD4052419302D0C8
:10070400A9F7EACFB4E0A69597958795779567956D
:10071400BA95C9F700976105710508959B01AC016D
:100724000A2E06945795479537952795BA95C9F794
:0C073400620F731F841F951FA01D089505
:100740001F920F920FB60F9211240BB60F92CF92F9
:10075000DF92EF92FF922F933F934F935F936F93AC
:100760007F938F939F93AF93BF93EF93FF9384B146
:1007700095B16FE872E00E942A056B01E12CF12C23
:1007800080E5C816D104E104F10448F40E94D205C2
:10079000E0911001F0911101C701B6010995FF9197
:1007A000EF91BF91AF919F918F917F916F915F91E9
:1007B0004F913F912F91FF90EF90DF90CF900F904E
:0C07C0000BBE0F900FBE0F901F901895FD
:1007CC00CF93DF93CDB7DEB72F970FB6F894DEBF7C
:1007DC000FBECDBF0E94840584E994E00E941305EE
:1007EC000E94DC050E94B602809115018F938091C6
:1007FC0014018F93809113018F93809112018F9329
:10080C00809119018F93809118018F938CE091E066
:10081C00A0E0AF939F938F938E010F5F1F4F1F9399
:10082C000F930E9464040E94AD05C8010E94A005AC
:10083C0084E690E00E9475050FB6F894DEBF0FBEFB
:04084C00CDBFD0CF7D
:100850000F931F93CF93DF93FB01248121FD03C0EE
:100860008FEF9FEF2CC022FF16C047815085258156
:1008700036814217530744F4A081B1819D012F5F57
:100880003F4F318320838C93278130852F5F3F4FEB
:100890003087278314C08B01EC01FB010184F285B2
:1008A000E02D0995892BE1F6D80117968D919C9141
:1008B0001897019618969C938E931797CE01DF9107
:0808C000CF911F910F910895E3
:1008C8000F931F93CF93DF93CDB7DEB72F970FB654
:1008D800F894DEBF0FBECDBF0E891F8986E08D83D9
:1008E8001A8309838FEF9FE79F838E839E01255E7E
:1008F8003F4F488D598D6A8DCE0101960E948E001A
:10090800E885F985E00FF11F10822F960FB6F8944D
:10091800DEBF0FBECDBFDF91CF911F910F9108951C
:10092800CF93DF93CDB7DEB72A970FB6F894DEBF23
:100938000FBECDBF0E94AD0522E031E040E08AE065
:10094800F901DE011196742F0E949205CE010196DD
:100958000E94A0052A960FB6F894DEBF0FBECDBF41
:06096800DF91CF9108951C
:10096E00CF938FEF81BB8ABB15BA1BBAC0E2C5BB52
:10097E000E943E05C5BB0E943E0580E885BB0E94D5
:10098E003E0515BA0E943E0580EF85BB0E943E05CE
:10099E0015BA0E943E0580E685BB0E943E05CF91AA
:0209AE000895AA
:1009B00020E030E012C0C901880F991FFC01E0500F
:1009C000FF4F40815181FC01E85FFE4F80819181A2
:1009D0004817590759F42F5F3F4F243031055CF316
:0E09E0000E94D2051092130110921201089588
:1009EE00CF92DF92EF926B01E82E9A01A82FCB01E6
:1009FE002115310531F48C199D09EF90DF90CF90C0
:100A0E000895FC015A2F0E94CB056623A1F301968F
:080A1E00A11D21503109ECCFAC
:100A260090931101809310010E94C40585E083BF55
:100A360081E087BFE1E6F0E080818D7F808381B32E
:0E0A4600816081BB82B3816082BB7894089589
:100A5400AA1BBB1B51E107C0AA1FBB1FA617B707E0
:100A640010F0A61BB70B881F991F5A95A9F78095FC
:080A74009095BC01CD0108952D
:100A7C008BB380648BBB8FEC97E00197F1F700C0D0
:100A8C0000008BB38F7B8BBB8FEC97E00197F1F75A
:060A9C0000C000000895F7
:100AA200CF93C82F85BB8BB380618BBB0E943E0561
:100AB200C295C07FC5BB8BB380618BBB0E943E05D4
:040AC200CF91089533
:100AC600CF93C82F85BB8BB38F7E8BBB0E943E0511
:100AD600C295C07FC5BB8BB38F7E8BBB0E943E0584
:040AE600CF9108950F
:100AEA0020E030E008C0EFECF7E03197F1F700C002
:0E0AFA0000002F5F3F4F28173907ACF3089517
:100B08008FEF84BB85BB0E94B7048FE19EE40197F9
:0C0B1800F1F700C000000E94AD05089538
:100B2400992777FD06C07BBF07900D920197E1F7E7
:0C0B3400089501900D920197E1F70895DB
:100B4000CF93DF93EC0103C00E9451052196888169
:0A0B50008111FACFDF91CF910895D3
:100B5A0081E00E9463058FE99FE00197F1F700C0E9
:0A0B6A00000080E80E946305089572
:100B74001F920F920FB60F9211240F900FBE0F9079
:040B84001F90189511
:0E0B880081EE87B98EEE86B980E880BD0895B3
:0E0B960057FD03C05BBF67910895608108950D
:0C0BA4000E94D80582B38E7F82BB0895AA
:080BB00017B816B810BC089537
:080BB8008AB3887F8ABB08950F
:040BC0000C94000091
:080BC400010000000100000027
:020BCC00010026
:00000001FF
