:100000000C9452000C94C5040C94C5040C94C504C3
:100010000C94C5040C94C5040C94C5040C94C5043C
:100020000C94C5040C94C5040C94C5040C94C5042C
:100030000C94C5040C94ED000C94C5040C94C504F8
:100040000C9481040C94C5040C94C5040C94C50450
:100050000C94C5040C9439010C94C5040C94C5048B
:100060000C94C5040C94C5040C94C5040C94C504EC
:100070000C94C5040C94C5040C94C5040C94C504DC
:100080000C94C5040C94C5040C94C5040100010E25
:1000900080010E011000098E0110011A80011A0161
:1000A0001C00099011241FBECFEFD0E1DEBFCDBFF1
:1000B000ECE8F0E040E019C0B791A79137912791A3
:1000C000079107FD0EC097918791EF01F92FE82F57
:1000D0000BBF07900D92A217B307D9F7FE011BBE05
:1000E00004C01D92A217B307E1F7E43AF40721F721
:0C00F0000E944C030C947C00F894FFCF9D
:1000FC0077726F6E6720636F64652074727920610C
:10010C006761696E00416C61726D0054726967675A
:10011C0065726564006C6F636B656400756E6C6F03
:05012C00636B65640037
:080131000100000001000000C4
:10013A00181619061CF441E050E002C04FEF5FEFB9
:10014A0080910E0190910F0148175907F9F05093C9
:10015A000F0140930E0120910C0130910D01F9011C
:10016A00EE0FFF1FE050FF4F809110019091110197
:10017A00918380832F5F3F4F30930D0120930C01B1
:10018A00243031051CF00E947F01089580911001EE
:10019A0090911101840F951F909311018093100182
:1001AA008A3091052CF0109211011092100108C0AA
:1001BA00992334F489E090E090931101809310011F
:1001CA0080910C01609110018F5F0E9434030895A1
:1001DA001F920F920FB60F9211240BB60F922F9304
:1001EA003F934F935F936F937F938F939F93AF93B5
:1001FA00BF93EF93FF9380911A0190911B0101978E
:10020A0090931B0180931A0180911A0190911B010E
:10021A006AE070E00E947703892B19F00E94AA0411
:10022A0002C00E94B90480911A0190911B0118160C
:10023A0019063CF00E94C104E0911801F0911901DD
:10024A000995FF91EF91BF91AF919F918F917F9106
:10025A006F915F914F913F912F910F900BBE0F902D
:08026A000FBE0F901F901895C4
:100272001F920F920FB60F9211240BB60F92CF92CC
:10028200DF92EF92FF922F933F934F935F936F937F
:100292007F938F939F93AF93BF93EF93FF9384B119
:1002A20095B16FE872E00E9463036B01E12CF12CBF
:1002B20080E5C816D104E104F10448F40E94A404C4
:1002C200E0910801F0910901C701B6010995FF917A
:1002D200EF91BF91AF919F918F917F916F915F91BC
:1002E2004F913F912F91FF90EF90DF90CF900F9021
:0C02F2000BBE0F900FBE0F901F901895D0
:1002FE00CF93DF9383E090E00E9417030E94C20326
:10030E000E94E20320E030E01FC0C901880F991F50
:10031E00FC01E050FF4FC081D181092E000CAA0BC9
:10032E008F5C9E4FAF4FFC015A2F0E949404C6174C
:10033E00D70741F0E0911201F091130109950E9447
:10034E00C20310C02F5F3F4F24303105F4F21092DC
:10035E000B0110920A01E0911401F091150109951B
:0A036E000E94A404DF91CF910895CE
:1003780081E087BB0E946B0480E00E945F0489E0F3
:100388000E94BD048FEF0E94BD0480E00E947604A5
:1003980080E00E945F048AE00E94BD0484E00E941D
:1003A800BD0480E00E94760480E00E945F048BE038
:1003B8000E94BD0487E00E94BD0480E00E9476048C
:0A03C8000E942B040E94C203089556
:1003D20089B320910A0130910B01232B81F482FF12
:1003E20022C081E090E090930B0180930A010E9469
:1003F200E203E0911601F09117010995089580FF3B
:1004020005C081E090E00E949D00089581FF05C033
:100412008FEF9FEF0E949D00089582FF04C00E940B
:08042200C2030E94E2030895E9
:10042A00CF93DF93CDB7DEB72A970FB6F894DEBF26
:10043A000FBECDBF0E94520427E131E040E08AE0BE
:10044A00F901DE011196742F0E941D04CE01019656
:10045A000E9445046CE370E084ED92E00E948B03F5
:10046A002A960FB6F894DEBF0FBECDBFDF91CF91AB
:02047A000895E3
:10047C00CF93DF93CDB7DEB727970FB6F894DEBFD7
:10048C000FBECDBF0E94520421E231E040E087E074
:10049C00F901DE011196742F0E941D04CE01019604
:1004AC000E9445046AE070E080EB94E00E948B03AC
:1004BC0027960FB6F894DEBF0FBECDBFDF91CF915C
:0204CC00089591
:1004CE00CF93DF93CDB7DEB729970FB6F894DEBF83
:1004DE000FBECDBF0E94520428E231E040E089E019
:1004EE00F901DE011196742F0E941D04CE010196B2
:1004FE000E9445040E94C1040E94B90429960FB6B9
:0E050E00F894DEBF0FBECDBFDF91CF910895F0
:10051C002091080130910901232B31F4009721F02F
:10052C009093090180930801E1E6F0E080818D7FD2
:10053C00808381B3816081BB82B3816082BB8AE09E
:10054C0090E00E9400040E949D0485E083BF81E03E
:06055C0087BF78940895AA
:10056200CF93DF93CDB7DEB765970FB6F894DEBFB2
:100572000FBECDBF0E9452042CEF30E040E085E177
:10058200F901DE011196742F0E941D04CE0101961D
:100592000E94450465960FB6F894DEBF0FBECDBF2C
:0605A200DF91CF910895E6
:1005A800CF93DF9300D000D000D0CDB7DEB70E9444
:1005B800520421E131E040E086E0F901DE011196C4
:1005C800742F0E941D04CE0101960E9445040E94CA
:1005D800AA0426960FB6F894DEBF0FBECDBFDF91F2
:0405E800CF91089512
:1005EC00CF938FEF81BB8ABB15BA1BBAC0E2C5BBD8
:1005FC000E94F103C5BB0E94F10380E885BB0E94F9
:10060C00F10315BA0E94F10380EF85BB0E94F10340
:10061C0015BA0E94F10380E685BB0E94F103CF91CD
:02062C0008952F
:10062E000F931F93CF93DF938C01C0E0D0E00DC0EA
:10063E000E9438048CE291E00E9400040E942B0478
:10064E008CE291E00E9400042196C017D10784F33A
:0A065E00DF91CF911F910F910895D5
:10066800CF93DF939FEF980F983078F4D62FC82F49
:1006780080E00E945F0489E08C1B0E94BD048D2FDE
:100688000E94BD0480E00E947604DF91CF91089516
:100698000E940F040E948B040E94BC0141EB52E0AF
:1006A80067E672E08EE392E00E94D2030E9467023E
:0E06B8000E94E90184E690E00E940004F9CF60
:1006C600AA1BBB1B51E107C0AA1FBB1FA617B70772
:1006D60010F0A61BB70B881F991F5A95A9F780958E
:0806E6009095BC01CD010895BF
:1006EE0097FB072E16F4009407D077FD09D00E94D1
:1006FE00630307FC05D03EF4909581959F4F0895B6
:08070E00709561957F4F08957D
:10071600909319018093180170931B0160931A013D
:100726008CE09BE799BD88BD87B78A6187BF7894BF
:060736008CE08EBD089569
:10073C00CF93C82F85BB8BB380618BBB0E94F10319
:10074C00C295C07FC5BB8BB380618BBB0E94F1038C
:04075C00CF9108959C
:10076000CF93C82F85BB8BB38F7E8BBB0E94F103C9
:10077000C295C07FC5BB8BB38F7E8BBB0E94F1033C
:04078000CF91089578
:10078400CF93DF93C1E0D0E005C06AE08C2F0E94D4
:1007940034032196C930D105C4F3DF91CF91089574
:1007A40090931701809316017093150160931401BF
:1007B40050931301409312018AB3887F8ABB089532
:1007C40010920D0110920C0181E090E090930F01C2
:0E07D40080930E0110921101109210010895F1
:1007E2008BB380648BBB81E090E00E9400048BB3EA
:0E07F2008F7B8BBB81E090E00E940004089595
:1008000020E030E008C0EFECF7E03197F1F700C0EE
:0E08100000002F5F3F4F28173907ACF3089503
:10081E008FEF84BB85BB0E94F6028FE19EE40197A9
:0C082E00F1F700C000000E945204089581
:10083A00992777FD06C07BBF07900D920197E1F7D4
:0C084A00089501900D920197E1F70895C8
:1008560080E00E945F048CE00E94BD0481E00E945B
:0A086600BD0480E00E9476040895AE
:1008700080E00E945F048CE00E94BD0480E00E9442
:0A088000BD0480E00E947604089594
:10088A00CF93DF93EC0103C00E949E0321968881D7
:0A089A008111FACFDF91CF9108958C
:1008A40081E00E94B0038FE99FE00197F1F700C057
:0A08B400000080E80E94B0030895E0
:1008BE0098B321E030E002C0220F331F8A95E2F791
:0808CE002095292328BB0895A1
:1008D6008FEF87BB87B3877F87BB88B3816088BB71
:0608E60082E58DB90895C2
:1008EC0098B321E030E002C0220F331F8A95E2F763
:0608FC00292B28BB089522
:100902001F920F920FB60F9211240F900FBE0F90ED
:040912001F90189585
:1009160088E196EF97BD86BD8CE09BE79BBD8ABDBF
:02092600089532
:1009280057FD04C05BBF67917791089561917191FC
:02093800089520
:0E093A0081EE87B98EEE86B980E880BD089503
:0C0948000E94B50482B38E7F82BB08952C
:0C09540082E88FBD8BE080937A0008954C
:0A09600085E192E00E948E020895E6
:08096A0086B1877D86B908956E
:080972001FBC10927A000895E9
:08097A008FB9779BFECF0895B1
:0809820087B7857E87BF089549
:04098A000C940000C9
:02098E00010066
:020990001E0047
:00000001FF
