:100000000C9455000C94E2040C94E2040C94E20469
:100010000C94E2040C94E2040C94E2040C94E204C8
:100020000C94E2040C94A0000C94E2040C94E204FE
:100030000C94E2040C94E2040C94E2040C94E204A8
:100040000C94A9040C94E2040C94E2040C94E204D1
:100050000C94E2040C9462010C94E2040C94E2040B
:100060000C94E2040C94E2040C94E2040C94E20478
:100070000C94E2040C94E2040C94E2040C94E20468
:100080000C94E2040C94E2040C94E2040100010AD2
:1000900080010A010E0009C8010E0114800114013B
:1000A000160009CC01160120800011241FBECFEFDD
:1000B000D0E1DEBFCDBFECE8F0E040E019C0B79181
:1000C000A79137912791079107FD0EC097918791CE
:1000D000EF01F92FE82F0BBF07900D92A217B3077E
:1000E000D9F7FE011BBE04C01D92A217B307E1F7AA
:1000F000E93AF40721F70E947D030C947F00F894FD
:02010000FFCF2F
:1001020077726F6E6720636F646520747279206105
:100112006761696E00416C61726D00547269676754
:1001220065726564006C6F636B656400756E6C6FFD
:05013200636B65640031
:080137000100000001000000BE
:100140001F920F920FB60F9211240BB60F922F939E
:100150003F934F935F936F937F938F939F93AF934F
:10016000BF93EF93FF93809100019091010101975C
:100170009093010180930001809100019091010111
:100180001816190644F188EE93E0909301018093CC
:10019000000180910A0190910B01A0910C01B09196
:1001A0000D010197A109B10980930A0190930B01F8
:1001B000A0930C01B0930D0180910A0190910B0165
:1001C000A0910C01B0910D0180FF03C00E94C904F1
:1001D00002C00E94DF0480910A0190910B01A0915E
:1001E0000C01B0910D01181619061A061B063CF0F9
:1001F0000E94DB04E0911E01F0911F010995FF911F
:10020000EF91BF91AF919F918F917F916F915F918E
:100210004F913F912F910F900BBE0F900FBE0F90FB
:040220001F9018957E
:10022400181619061CF441E050E002C04FEF5FEFCE
:10023400809114019091150148175907F9F05093D2
:100244001501409314012091120130911301F90119
:10025400EE0FFF1FEE5FFE4F809116019091170184
:10026400918380832F5F3F4F3093130120931201BA
:10027400243031051CF00E94A801089580911601D4
:1002840090911701840F951F909317018093160185
:100294008A3091052CF0109217011092160108C0B3
:1002A400992334F489E090E0909317018093160128
:1002B40080911201609116018F5F0E949903089545
:1002C4001F920F920FB60F9211240BB60F92CF927A
:1002D400DF92EF92FF922F933F934F935F936F932D
:1002E4007F938F939F93AF93BF93EF93FF9384B1C7
:1002F40095B16FE872E00E94B1036B01E12CF12C1F
:1003040080E5C816D104E104F10448F40E94C30452
:10031400E0910E01F0910F01C701B6010995FF911B
:10032400EF91BF91AF919F918F917F916F915F9169
:100334004F913F912F91FF90EF90DF90CF900F90CE
:0C0344000BBE0F900FBE0F901F9018957D
:10035000CF93DF9383E090E00E9460030E94E90363
:100360000E94090420E030E01FC0C901880F991FD6
:10037000FC01EE5FFE4FC081D181092E000CAA0B5B
:10038000895C9E4FAF4FFC015A2F0E94B304C617E1
:10039000D70741F0E0911801F091190109950E94E9
:1003A000E90310C02F5F3F4F24303105F4F2109263
:1003B000110110921001E0911A01F0911B010995B1
:0A03C0000E94C304DF91CF9108955D
:1003CA0087B3816087BB0E94860480E00E94920402
:1003DA0089E00E94D7048FEF0E94D70480E00E9430
:1003EA009E0480E00E9492048AE00E94D70484E07E
:1003FA000E94D70480E00E949E0480E00E9492043A
:10040A008BE00E94D70487E00E94D70480E00E9414
:0C041A009E040E9452040E94E903089511
:1004260089B32091100130911101232B81F482FFB1
:1004360022C081E090E090931101809310010E9408
:100446000904E0911C01F0911D010995089580FFB2
:1004560005C081E090E00E941201089581FF05C069
:100466008FEF9FEF0E941201089582FF04C00E9441
:08047600E9030E940904089546
:10047E00CF93DF93CDB7DEB72A970FB6F894DEBFD2
:10048E000FBECDBF0E9479042DE131E040E08AE03D
:10049E00F901DE011196742F0E944404CE010196DB
:1004AE000E946C0464E170E08EEF92E00E944103C2
:1004BE002A960FB6F894DEBF0FBECDBFDF91CF9157
:0204CE0008958F
:1004D000CF93DF93CDB7DEB727970FB6F894DEBF83
:1004E0000FBECDBF0E94790427E231E040E087E0F3
:1004F000F901DE011196742F0E944404CE01019689
:100500000E946C046AE070E08EEC94E00E9441036B
:1005100027960FB6F894DEBF0FBECDBFDF91CF9107
:0205200008953C
:10052200CF93DF93CDB7DEB729970FB6F894DEBF2E
:100532000FBECDBF0E9479042EE231E040E089E097
:10054200F901DE011196742F0E944404CE01019636
:100552000E946C040E94DB040E94DF0429960FB6FD
:0E056200F894DEBF0FBECDBFDF91CF9108959C
:1005700020910E0130910F01232B31F4009721F0CF
:1005800090930F0180930E01E1E6F0E080818D7F72
:10059000808381B3816081BB82B3816082BB8AE04A
:1005A00090E00E9427040E94BC0485E083BF81E0A4
:0605B00087BF7894089556
:1005B600CF93DF93CDB7DEB765970FB6F894DEBF5E
:1005C6000FBECDBF0E94790422E031E040E085E114
:1005D600F901DE011196742F0E944404CE010196A2
:1005E6000E946C0465960FB6F894DEBF0FBECDBFB1
:0605F600DF91CF91089592
:1005FC00CF93DF9300D000D000D0CDB7DEB70E94F0
:10060C00790427E131E040E086E0F901DE01119642
:10061C00742F0E944404CE0101960E946C040E9427
:10062C00C90426960FB6F894DEBF0FBECDBFDF917E
:04063C00CF910895BD
:10064000CF938FEF81BB8ABB15BA1BBAC0E2C5BB83
:100650000E941804C5BB0E94180480E885BB0E9454
:10066000180415BA0E94180480EF85BB0E94180474
:1006700015BA0E94180480E685BB0E941804CF9129
:020680000895DB
:1006820090931F0180931E01CB01770FAA0BBB0B26
:1006920080930A0190930B01A0930C01B0930D017A
:1006A20088EE93E0909301018093000186E983BD77
:0E06B20087B7806887BF78948BE085BD089578
:1006C0000F931F93CF93DF938C01C0E0D0E00DC058
:1006D0000E945F048CE291E00E9427040E94520471
:1006E0008CE291E00E9427042196C017D10784F381
:0A06F000DF91CF911F910F91089543
:1006FA000E9436048FEF87BB8ABB84E690E00E9493
:10070A0027040E94E5014BED52E061E972E088E6B8
:10071A0092E00E94F9030E9491020E94130284E669
:08072A0090E00E942704F9CFC2
:10073200CF93DF939FEF980F983078F4D62FC82F7E
:1007420080E00E94920489E08C1B0E94D7048D2FC6
:100752000E94D70480E00E949E04DF91CF91089509
:10076200AA1BBB1B51E107C0AA1FBB1FA617B707D5
:1007720010F0A61BB70B881F991F5A95A9F78095F1
:080782009095BC01CD01089522
:10078A00CF93C82F85BB8BB380618BBB0E941804A3
:10079A00C295C07FC5BB8BB380618BBB0E94180416
:0407AA00CF9108954E
:1007AE00CF93C82F85BB8BB38F7E8BBB0E94180453
:1007BE00C295C07FC5BB8BB38F7E8BBB0E941804C6
:0407CE00CF9108952A
:1007D200CF93DF93C1E0D0E005C06AE08C2F0E9486
:1007E20099032196C930D105C4F3DF91CF910895C1
:1007F20090931D0180931C0170931B0160931A0159
:1008020050931901409318018AB3887F8ABB0895D7
:10081200109213011092120181E090E09093150161
:0E082200809314011092170110921601089590
:100830008BB380648BBB81E090E00E9427048BB374
:0E0840008F7B8BBB81E090E00E94270408951F
:10084E0020E030E008C0EFECF7E03197F1F700C0A0
:0E085E0000002F5F3F4F28173907ACF30895B5
:10086C008FEF84BB85BB0E9420038FE19EE4019730
:0C087C00F1F700C000000E94790408950C
:10088800992777FD06C07BBF07900D920197E1F786
:0C089800089501900D920197E1F708957A
:1008A40080E00E9492048CE00E94D70481E00E94C0
:0A08B400D70480E00E949E0408951E
:1008BE0080E00E9492048CE00E94D70480E00E94A7
:0A08CE00D70480E00E949E04089504
:1008D800CF93DF93EC0103C00E94C5032196888162
:0A08E8008111FACFDF91CF9108953E
:1008F20081E00E94D7038FE99FE00197F1F700C0E2
:0A090200000080E80E94D70308956A
:10090C0087B38FEF87BB87B3877F87BB88B3816043
:08091C0088BB82E58DB9089546
:1009240098B321E030E002C0220F331F8A95E2F72A
:080934002095292328BB08953A
:10093C0098B321E030E002C0220F331F8A95E2F712
:06094C00292B28BB0895D1
:100952001F920F920FB60F9211240F900FBE0F909D
:040962001F90189535
:1009660057FD04C05BBF67917791089561917191BE
:020976000895E2
:0E09780081EE87B98EEE86B980E880BD0895C5
:0C0986000E94D30482B38E7F82BB0895D0
:0A09920082E88FBD8AE18EBD089552
:0A099C008FE392E00E94B802089574
:0809A60086B1877D86B9089532
:0809AE008FB9779BFECF08957D
:0809B60087B78F7787BF089512
:0609BE001FBC1EBC0895E1
:0409C4000C9400008F
:0409C8001E0000000D
:0209CC00010028
:00000001FF
