:100000000C9449000C94B4010C94B4010C94B40108
:100010000C94B4010C94B4010C94B4010C94B4018C
:100020000C94B4010C94B4010C94B4010C94B4017C
:100030000C94B4010C94B4010C94B4010C94B4016C
:100040000C949F010C94B4010C94B4010C94B40171
:100050000C94B4010C947A000C94B4010C94B40187
:100060000C94B4010C94B4010C94B4010C94B4013C
:100070000C94B4010C94B4010C94B4010C94B4012C
:100080000C94B4010C94B4010C94B4010100011857
:10009000800011241FBECFEFD0E1DEBFCDBFECE862
:1000A000F0E040E019C0B791A791379127910791EF
:1000B00007FD0EC097918791EF01F92FE82F0BBF35
:1000C00007900D92A217B307D9F7FE011BBE04C01B
:1000D0001D92A217B307E1F7E139F40721F70E9457
:0A00E000FC000C947300F894FFCFAD
:0A00EA00547269676765726564006F
:1000F4001F920F920FB60F9211240BB60F922F93EB
:100104003F934F935F936F937F938F939F93AF939B
:10011400BF93EF93FF93CF93DF93CDB7DEB72A97C7
:10012400DEBFCDBF0E94870184B195B16FE872E054
:100134000E941201CB01A0E0B0E0809300019093F3
:100144000101A0930201B093030180359105A1053B
:10015400B10580F42AEE30E040E08AE0F901DE01E6
:100164001196742F0E946C01CE0101960E947A01AF
:100174000E94B00184E690E00E945D012A960FB6C9
:10018400F894DEBF0FBECDBFDF91CF91FF91EF9109
:10019400BF91AF919F918F917F916F915F914F919B
:1001A4003F912F910F900BBE0F900FBE0F901F9099
:0201B40018959C
:1001B600CF938FEF81BB8ABB15BA1BBAC0E2C5BB12
:1001C6000E942601C5BB0E94260180E885BB0E94CD
:1001D600260115BA0E94260180EF85BB0E942601E2
:1001E60015BA0E94260180E685BB0E942601CF91A2
:0201F60008956A
:1001F800CFEFC4BBC5BB0E94940110926100CABB7B
:10020800C7BB0E94A90185E083BF81E087BF7894BE
:0C02180011BA84E690E00E945D01FBCF6B
:10022400AA1BBB1B51E107C0AA1FBB1FA617B70718
:1002340010F0A61BB70B881F991F5A95A9F7809534
:080244009095BC01CD01089565
:10024C008BB380648BBB8FEC97E00197F1F700C008
:10025C0000008BB38F7B8BBB8FEC97E00197F1F792
:06026C0000C0000008952F
:10027200CF93C82F85BB8BB380618BBB0E942601B5
:10028200C295C07FC5BB8BB380618BBB0E94260128
:04029200CF9108956B
:10029600CF93C82F85BB8BB38F7E8BBB0E94260165
:1002A600C295C07FC5BB8BB38F7E8BBB0E942601D8
:0402B600CF91089547
:1002BA0020E030E008C0EFECF7E03197F1F700C03A
:0E02CA0000002F5F3F4F28173907ACF308954F
:1002D800992777FD06C07BBF07900D920197E1F73C
:0C02E800089501900D920197E1F7089530
:1002F400CF93DF93EC0103C00E94390121968881DA
:0A0304008111FACFDF91CF91089527
:10030E0081E00E944B018FE99FE00197F1F700C059
:0A031E00000080E80E944B010895E2
:100328000E94DB008FE19EE40197F1F700C0000016
:060338000E9487010895F8
:10033E001F920F920FB60F9211240F900FBE0F90B7
:04034E001F9018954F
:0E03520081EE87B98EEE86B980E880BD0895F1
:0803600017B816B810BC08958F
:040368000C940000F1
:00000001FF
