:100000000C9458000C9486040C9486040C9486047A
:100010000C9486040C9486040C9486040C94860438
:100020000C9486040C9486040C9486040C94860428
:100030000C9476010C9486040C9486040C9486042B
:100040000C945A040C9486040C9486040C94860434
:100050000C9486040C94F3000C9486040C9486048F
:100060000C9486040C9486040C9486040C948604E8
:100070000C9486040C9486040C9486040C948604D8
:100080000C9486040C9486040C9486040100010AE6
:1000900080010A010C000910010C010E80010E0103
:1000A000100009120110011A80011A011C00091424
:1000B00011241FBECFEFD0E1DEBFCDBFECE8F0E0F2
:1000C00040E019C0B791A79137912791079107FD9B
:1000D0000EC097918791EF01F92FE82F0BBF079082
:1000E0000D92A217B307D9F7FE011BBE04C01D92E3
:1000F000A217B307E1F7E03BF40721F70E943903A9
:080100000C948200F894FFCF7B
:10010800416C61726D006C6F636B65640077726F30
:100118006E6720636F646520747279206167616916
:100128006E0054726967676572656400756E6C6FFE
:05013800636B6564002B
:08013D000100000001000000B8
:10014600181619061CF441E050E002C04FEF5FEFAD
:1001560080910E0190910F0148175907F9F02091EF
:100166000C0130910D01233031051CF00E9439013C
:10017600089550930F0140930E01F901EE0FFF1FF2
:10018600E050FF4F8091100190911101918380837F
:100196002F5F3F4F30930D0120930C01809110018A
:1001A60090911101840F951F909311018093100176
:1001B6008A3091052CF0109211011092100108C09E
:1001C600992334F489E090E0909311018093100113
:1001D60080910C01609110018F5F0E9421030895A8
:1001E6001F920F920FB60F9211240BB60F92CF9259
:1001F600DF92EF92FF922F933F934F935F936F930C
:100206007F938F939F93AF93BF93EF93FF9384B1A5
:1002160095B16FE872E00E9450036B01E12CF12C5E
:1002260080E5C816D104E104F10448F40E94740480
:10023600E0910801F0910901C701B6010995FF9106
:10024600EF91BF91AF919F918F917F916F915F9148
:100256004F913F912F91FF90EF90DF90CF900F90AD
:0C0266000BBE0F900FBE0F901F9018955C
:10027200CF93DF9383E090E00E9404030E949B03EC
:100282000E94BB0320E030E01FC0C901880F991F04
:10029200FC01E050FF4FC081D181092E000CAA0B56
:1002A200835C9E4FAF4FFC015A2F0E946404C61715
:1002B200D70741F0E0911201F091130109950E94D4
:1002C2009B0310C02F5F3F4F24303105F4F2109290
:1002D2000B0110920A01E0911401F09115010995A8
:0A02E2000E947404DF91CF9108958B
:1002EC001F920F920FB60F9211240BB60F922F93F1
:1002FC003F934F935F936F937F938F939F93AF93A2
:10030C00BF93EF93FF9380911A0190911B0101977A
:10031C0090931B0180931A0180911A0190911B01FB
:10032C00181619063CF00E948204E0911801F09115
:10033C0019010995FF91EF91BF91AF919F918F9109
:10034C007F916F915F914F913F912F910F900BBEC9
:0A035C000F900FBE0F901F90189530
:1003660089B320910A0130910B01232BA1F482FF5E
:1003760026C081E090E090930B0180930A010E94D1
:10038600BB03E0911601F0911701099580E090E01A
:100396000E94E502089580FF05C081E090E00E947A
:1003A600A300089581FF05C08FEF9FEF0E94A30071
:1003B600089582FF04C00E949B030E94BB03089518
:1003C60081E087BB0E94440480E00E94380489E0F3
:1003D6000E947E048FEF0E947E0480E00E944F04FC
:1003E60080E00E9438048AE00E947E0484E00E9435
:1003F6007E0480E00E944F0480E00E9438048BE077
:100406000E947E0487E00E947E0480E00E944F04E2
:0A0416000E9404040E949B03089555
:10042000CF93DF93CDB7DEB72A970FB6F894DEBF30
:100430000FBECDBF0E942B042AE231E040E08AE0EB
:10044000F901DE011196742F0E94F603CE01019688
:100450000E941E046EE170E085EC92E00E9464034D
:100460002A960FB6F894DEBF0FBECDBFDF91CF91B5
:020470000895ED
:10047200CF93DF93CDB7DEB729970FB6F894DEBFDF
:100482000FBECDBF0E942B0424E331E040E089E09F
:10049200F901DE011196742F0E94F603CE01019636
:1004A2000E941E040E94820429960FB6F894DEBFB1
:0A04B2000FBECDBFDF91CF9108957A
:1004BC00CF93DF93CDB7DEB727970FB6F894DEBF97
:1004CC000FBECDBF0E942B042EE031E040E087E050
:1004DC00F901DE011196742F0E94F603CE010196EC
:1004EC000E941E0427960FB6F894DEBF0FBECDBF38
:0604FC00DF91CF9108958D
:10050200CF93DF93CDB7DEB765970FB6F894DEBF12
:100512000FBECDBF0E942B0425E131E040E085E112
:10052200F901DE011196742F0E94F603CE010196A5
:100532000E941E0465960FB6F894DEBF0FBECDBFB3
:06054200DF91CF91089546
:10054800CF938FEF81BB8ABB15BA1BBAC0E2C5BB7C
:100558000E94CA03C5BB0E94CA0380E885BB0E94EB
:10056800CA0315BA0E94CA0380EF85BB0E94CA035A
:1005780015BA0E94CA0380E685BB0E94CA03CF91C0
:020588000895D4
:10058A00CF93DF9300D000D000D0CDB7DEB70E9462
:10059A002B0428E031E040E086E0F901DE01119603
:1005AA00742F0E94F603CE0101960E941E0426961D
:1005BA000FB6F894DEBF0FBECDBFDF91CF9108957D
:1005CA002091080130910901232B31F4009721F081
:1005DA0090930901809308010E946D0485E083BF0E
:1005EA0081E087BFE1E6F0E080818D7F808381B37F
:0E05FA00816081BB82B3816082BB78940895DA
:100608000F931F93CF93DF938C01C0E0D0E00DC010
:100618000E9411048CE291E00E94D9030E94040414
:100628008CE291E00E94D9032196C017D10784F388
:0A063800DF91CF911F910F910895FB
:10064200CF93DF939FEF980F983078F4D62FC82F6F
:1006520080E00E94380489E08C1B0E947E048D2F6A
:100662000E947E0480E00E944F04DF91CF910895A2
:100672000E94E8030E94E30141E852E069E372E06C
:100682008EE592E00E94AB0380E192E00E94E502D7
:0E0692000E94B30184E690E00E94D903F9CFE4
:1006A000AA1BBB1B51E107C0AA1FBB1FA617B70798
:1006B00010F0A61BB70B881F991F5A95A9F78095B4
:0806C0009095BC01CD010895E5
:1006C800909319018093180170931B0160931A018C
:1006D8008CE09BE79BBD8ABD87B7806187BF789414
:0606E8008CE08EBD0895B8
:1006EE00CF93C82F85BB8BB380618BBB0E94CA038F
:1006FE00C295C07FC5BB8BB380618BBB0E94CA0302
:04070E00CF910895EA
:10071200CF93C82F85BB8BB38F7E8BBB0E94CA033E
:10072200C295C07FC5BB8BB38F7E8BBB0E94CA03B1
:04073200CF910895C6
:10073600CF93DF93C1E0D0E005C06AE08C2F0E9422
:1007460021032196C930D105C4F3DF91CF910895D5
:10075600909317018093160170931501609314010D
:1007660050931301409312018AB3887F8ABB089580
:1007760010920D0110920C0181E090E090930F0110
:0E07860080930E01109211011092100108953F
:100794008BB380648BBB81E090E00E94D9038BB360
:0E07A4008F7B8BBB81E090E00E94D90308950B
:1007B20020E030E008C0EFECF7E03197F1F700C03D
:0E07C20000002F5F3F4F28173907ACF3089552
:1007D0008FEF84BB85BB0E94A4028FE19EE401974A
:0C07E000F1F700C000000E942B040895F7
:1007EC00992777FD06C07BBF07900D920197E1F723
:0C07FC00089501900D920197E1F7089517
:1008080080E00E9438048CE00E947E0481E00E940F
:0A0818007E0480E00E944F04089562
:1008220080E00E9438048CE00E947E0480E00E94F6
:0A0832007E0480E00E944F04089548
:10083C00CF93DF93EC0103C00E947703219688814C
:0A084C008111FACFDF91CF910895DA
:1008560081E00E9489038FE99FE00197F1F700C0CC
:0A086600000080E80E948903089555
:1008700098B321E030E002C0220F331F8A95E2F7DF
:080880002095292328BB0895EF
:100888008FEF87BB87B3877F87BB88B3816088BBBF
:0608980082E58DB9089510
:10089E0098B321E030E002C0220F331F8A95E2F7B1
:0608AE00292B28BB089570
:1008B4001F920F920FB60F9211240F900FBE0F903C
:0408C4001F901895D4
:1008C80057FD04C05BBF679177910895619171915D
:0208D800089581
:0E08DA0081EE87B98EEE86B980E880BD089564
:0C08E8000E947A0482B38E7F82BB0895C8
:0808F40086B1877D86B90895E5
:0808FC008FB9779BFECF089530
:0809040087B78F7E87BF0895BD
:04090C000C94000047
:020910000100E4
:020912000100E2
:020914001E00C3
:00000001FF
