:100000000C9449000C94D1010C94D1010C94D101B1
:100010000C94D1010C94D1010C94D1010C94D10118
:100020000C94D1010C94D1010C94D1010C94D10108
:100030000C94D1010C94D1010C94D1010C94D101F8
:100040000C94B6010C94D1010C94D1010C94D10103
:100050000C94D1010C947A000C94D1010C94D10130
:100060000C94D1010C94D1010C94D1010C94D101C8
:100070000C94D1010C94D1010C94D1010C94D101B8
:100080000C94D1010C94D1010C94D1010100010216
:10009000800011241FBECFEFD0E1DEBFCDBFECE862
:1000A000F0E040E019C0B791A791379127910791EF
:1000B00007FD0EC097918791EF01F92FE82F0BBF35
:1000C00007900D92A217B307D9F7FE011BBE04C01B
:1000D0001D92A217B307E1F7E139F40721F70E9457
:0A00E000AB010C947300F894FFCFFD
:0A00EA00547269676765726564006F
:1000F4001F920F920FB60F9211240BB60F92CF924C
:10010400DF92EF92FF922F933F934F935F936F93FE
:100114007F938F939F93AF93BF93EF93FF9384B198
:1001240095B16FE872E00E941B016B01E12CF12C88
:1001340080E5C816D104E104F10448F40E94C70123
:10014400E0910001F0910101C701B6010995FF9109
:10015400EF91BF91AF919F918F917F916F915F913B
:100164004F913F912F91FF90EF90DF90CF900F90A0
:0C0174000BBE0F900FBE0F901F9018954F
:10018000CF93DF93CDB7DEB72A970FB6F894DEBFD3
:100190000FBECDBF0E949E012AEE30E040E08AE013
:1001A000F901DE011196742F0E948301CE010196A0
:1001B0000E9491012A960FB6F894DEBF0FBECDBF04
:0601C000DF91CF910895CC
:1001C600CF938FEF81BB8ABB15BA1BBAC0E2C5BB02
:1001D6000E942F01C5BB0E942F0180E885BB0E94AB
:1001E6002F0115BA0E942F0180EF85BB0E942F01B7
:1001F60015BA0E942F0180E685BB0E942F01CF9180
:02020600089559
:1002080090930101809300010E94C00185E083BFA3
:1002180081E087BFE1E6F0E080818D7F808381B354
:0E022800816081BB82B3816082BB78940895AF
:10023600AA1BBB1B51E107C0AA1FBB1FA617B70706
:1002460010F0A61BB70B881F991F5A95A9F7809522
:080256009095BC01CD01089553
:10025E008BB380648BBB8FEC97E00197F1F700C0F6
:10026E0000008BB38F7B8BBB8FEC97E00197F1F780
:06027E0000C0000008951D
:10028400CF93C82F85BB8BB380618BBB0E942F019A
:10029400C295C07FC5BB8BB380618BBB0E942F010D
:0402A400CF91089559
:1002A800CF93C82F85BB8BB38F7E8BBB0E942F014A
:1002B800C295C07FC5BB8BB38F7E8BBB0E942F01BD
:0402C800CF91089535
:1002CC0020E030E008C0EFECF7E03197F1F700C028
:0E02DC0000002F5F3F4F28173907ACF308953D
:1002EA008FEF84BB85BB0E94E3008FE19EE40197F8
:0C02FA00F1F700C000000E949E01089572
:10030600992777FD06C07BBF07900D920197E1F70D
:0C031600089501900D920197E1F7089501
:10032200CF93DF93EC0103C00E94420121968881A2
:0A0332008111FACFDF91CF910895F9
:10033C0081E00E9454018FE99FE00197F1F700C022
:0A034C00000080E80E9454010895AB
:100356000E94750180EC90E00E94040184E690E022
:060366000E946601FBCFBE
:10036C001F920F920FB60F9211240F900FBE0F9089
:04037C001F90189521
:0E03800081EE87B98EEE86B980E880BD0895C3
:0C038E000E94CD0182B38E7F82BB0895D7
:08039A0017B816B810BC089555
:0403A2000C940000B7
:00000001FF
