:100000000C9446000C942B040C942B040C942B049D
:100010000C942B040C942B040C942B040C942B04A4
:100020000C942B040C942B040C942B040C942B0494
:100030000C942B040C942B040C942B040C942B0484
:100040000C942B040C942B040C942B040C942B0474
:100050000C942B040C942B040C942B040C942B0464
:100060000C942B040C942B040C942B040C942B0454
:100070000C942B040C942B040C942B040C942B0444
:100080000C942B040C942B040C942B0411241FBEF1
:10009000CFEFD0E1DEBFCDBF0E9419030C9450001A
:0400A000F894FFCF02
:0A00A40074656D70203D2025640096
:1000AE002F923F924F926F927F928F929F92AF922A
:1000BE00BF92CF92DF92EF92FF920F931F93CF9347
:1000CE00DF93CDB7DEB762970FB6F894DEBF0FBEE3
:1000DE00CDBF6C013A01862E7901FC011086178284
:1000EE00848181FFEBC19E012F5F3F4F3D872C879F
:1000FE00C901A0E8888B998BAA8B9FE3992EF301F7
:10010E00582D0E942404862F662309F4D3C1482D4E
:10011E0093012F5F3F4F4F4F653219F03901842EF7
:10012E000BC0F901542F0E942404862F92E0690E11
:10013E00711C811C653229F4B60190E00E94DD022B
:10014E00DECFB12C00E010E01032A0F48B3269F05B
:10015E0030F4803259F0833269F410612CC08D3244
:10016E0039F0803339F4116026C01260146023C058
:10017E00186021C017FD2AC090ED980F9A3078F4C0
:10018E0016FF06C0AAE0BA9E900D1124B92E13C018
:10019E00EAE00E9F900D1124092F10620CC08E32D2
:1001AE0021F416FD87C1106406C08C3611F4106858
:1001BE0002C0883659F4F301582D0E942404862F6C
:1001CE00FFEF6F1A7F0A8F0A6111BECF982F9F7DA6
:1001DE009554933028F424E0E20EF11C99820FC05E
:1001EE00833631F0833791F0833509F064C027C030
:1001FE00F7018081898397012E5F3F4F790128880F
:10020E0039884A88AA24A394B12C17C0A7014D5F40
:10021E005F4F5F874E87F70120803180428016FF47
:10022E0003C04B2D50E002C04FEF5FEF842DB101A4
:10023E000E949E035C01EE84FF841F7718C0970115
:10024E002D5F3F4F3F872E87F70120803180428000
:10025E0016FF03C04B2D50E002C04FEF5FEF842D11
:10026E00B1010E949E035C011068EE84FF8413FDB1
:10027E001EC0802F90E0A816B906C8F4B60180E221
:10028E0090E00E94DD020150F4CFF101542D0E9446
:10029E002404862FFFEF2F1A3F0A4F0AB60190E073
:1002AE000E94DD020111015021E0A21AB108A11431
:1002BE00B10459F7F5C0843611F0893671F5F7019E
:1002CE0017FF08C0608171818281938197012C5F35
:1002DE003F4F09C060817181072E000C880B990B6E
:1002EE0097012E5F3F4F79011F76312E97FF0AC07F
:1002FE0090958095709561957F4F8F4F9F4F312FC1
:10030E003068332E2AE030E0AE014F5F5F4F0E941F
:10031E007F02482E4C85441A4AC0853729F41F7E29
:10032E00A12E2AE030E025C0512F597FA52E8F3601
:10033E00C1F018F4883579F0BDC0803719F08837D0
:10034E0021F0B8C0852F8061A82EA4FE0DC09A2D75
:10035E009460A92E09C014FF0AC0A52FA660AA2E6C
:10036E0006C028E030E005C020E130E002C020E108
:10037E0032E0F701A7FE08C060817181828193810E
:10038E00A7014C5F5F4F07C06081718180E090E0F4
:10039E00A7014E5F5F4F7A01AE014F5F5F4F0E9424
:1003AE007F02482E5C85451A8A2D8F77382E36FEB1
:1003BE000DC0932D9E7FA92E4B1458F434FE0BC006
:1003CE0032FC09C0A32DAE7EAA2E05C0142DA32C7F
:1003DE0003C0142D01C01B2DA4FE0EC0FE01E40DA2
:1003EE00F11D8081803321F4EA2DE97EAE2E08C006
:1003FE00A2FE05C01E5F04C08A2D867809F01F5F1D
:10040E00A3FC11C0A0FE06C0101788F4040DB02E78
:10041E00B11A0EC0101760F4B60180E290E00E948F
:10042E00DD021F5FF7CF101718F4011B02C0B42CAA
:10043E0000E0A4FE10C0B60180E390E00E94DD0251
:10044E00A2FE17C0A1FC03C088E790E002C088E5B9
:10045E0090E0B6010CC08A2D867859F0A1FE02C03C
:10046E008BE201C080E2A7FC8DE2B60190E00E9413
:10047E00DD024B1438F4B60180E390E00E94DD02F9
:10048E00BA94F7CF4A94E1E0F0E0EC0FFD1FE40DD3
:10049E00F11D8081B60190E00E94DD024110F2CF85
:1004AE00002309F42CCEB60180E290E00E94DD021A
:1004BE000150F6CFF6018781908502C08FEF9FEF36
:1004CE0062960FB6F894DEBF0FBECDBFDF91CF910F
:1004DE001F910F91FF90EF90DF90CF90BF90AF9054
:1004EE009F908F907F906F904F903F902F90089598
:1004FE00FA01AA27283051F1203181F1E8946F9347
:10050E006E7F6E5F7F4F8F4F9F4FAF4FB1E03ED0EC
:10051E00B4E03CD0670F781F891F9A1FA11D680F8A
:10052E00791F8A1F911DA11D6A0F711D811D911DBD
:10053E00A11D20D009F468943F912AE0269F112432
:10054E003019305D3193DEF6CF010895462F477096
:10055E00405D4193B3E00FD0C9F7F6CF462F4F70F1
:10056E00405D4A3318F0495D31FD4052419302D04F
:10057E00A9F7EACFB4E0A6959795879577956795F5
:10058E00BA95C9F700976105710508959B01AC01F5
:10059E000A2E06945795479537952795BA95C9F71C
:0C05AE00620F731F841F951FA01D08958D
:1005BA000F931F93CF93DF93FB01248121FD03C087
:1005CA008FEF9FEF2CC022FF16C0478150852581EF
:1005DA0036814217530744F4A081B1819D012F5FF0
:1005EA003F4F318320838C93278130852F5F3F4F84
:1005FA003087278314C08B01EC01FB010184F2854B
:10060A00E02D0995892BE1F6D80117968D919C91D9
:10061A001897019618969C938E931797CE01DF919F
:08062A00CF911F910F9108957B
:10063200CF93DF93CDB7DEB764970FB6F894DEBFE2
:100642000FBECDBF0E94FC03109261008FEF87BBEB
:1006520083EE87B981EE86B985B188BB1F928F93ED
:1006620084EA90E0A0E0AF939F938F938E010F5F97
:100672001F4F1F930F930E944D030E941704C8013E
:100682000E940A0484EF91E00E94ED030FB6F894F1
:08069200DEBF0FBECDBFE0CFBB
:10069A000F931F93CF93DF93CDB7DEB72F970FB684
:1006AA00F894DEBF0FBECDBF0E891F8986E08D8309
:1006BA001A8309838FEF9FE79F838E839E01255EAE
:1006CA003F4F488D598D6A8DCE0101960E94570081
:1006DA00E885F985E00FF11F10822F960FB6F8947E
:1006EA00DEBF0FBECDBFDF91CF911F910F9108954D
:1006FA00CF938FEF81BB8ABB15BA1BBAC0E2C5BBC9
:10070A000E94DE03C5BB0E94DE0380E885BB0E940F
:10071A00DE0315BA0E94DE0380EF85BB0E94DE036A
:10072A0015BA0E94DE0380E685BB0E94DE03CF91E4
:02073A00089520
:10073C00CF92DF92EF926B01E82E9A01A82FCB019A
:10074C002115310531F48C199D09EF90DF90CF9074
:10075C000895FC015A2F0E9424046623A1F30196EC
:08076C00A11D21503109ECCF61
:10077400CF93C82F85BB8BB380618BBB0E94DE03F4
:10078400C295C07FC5BB8BB380618BBB0E94DE0367
:04079400CF91089564
:10079800CF93C82F85BB8BB38F7E8BBB0E94DE03A4
:1007A800C295C07FC5BB8BB38F7E8BBB0E94DE0317
:0407B800CF91089540
:1007BC008BB380648BBB81E090E00E94ED038BB324
:0E07CC008F7B8BBB81E090E00E94ED030895CF
:1007DA0020E030E008C0EFECF7E03197F1F700C015
:0E07EA0000002F5F3F4F28173907ACF308952A
:1007F8008FEF84BB85BB0E947D038FE19EE4019748
:0C080800F1F700C000000E9417040895E2
:10081400CF93DF93EC0103C00E94BA032196888131
:0A0824008111FACFDF91CF91089502
:10082E0081E00E94CC038FE99FE00197F1F700C0B1
:0A083E00000080E80E94CC0308953A
:0E08480057FD03C05BBF67910895608108955E
:040856000C940000FE
:00000001FF
