:100000000C9446000C9499000C9499000C9499005F
:100010000C9499000C9499000C9499000C949900FC
:100020000C9499000C9499000C9499000C949900EC
:100030000C9499000C9499000C9499000C949900DC
:100040000C9499000C9499000C9499000C949900CC
:100050000C9499000C9499000C9499000C949900BC
:100060000C9499000C9499000C9499000C949900AC
:100070000C9499000C9499000C9499000C9499009C
:100080000C9499000C9499000C94990011241FBEB3
:10009000CFEFD0E1DEBFCDBFECE8F0E040E019C02B
:1000A000B791A79137912791079107FD0EC09791BE
:1000B0008791EF01F92FE82F0BBF07900D92A21740
:1000C000B307D9F7FE011BBE04C01D92A217B307E8
:1000D000E1F7EC38F40721F70E949B000C947000C4
:0400E000F894FFCFC2
:1000E40020E030E012C0E9EFF0E03197F1F700C012
:1000F4000000989B08C08031974219F484EC99E081
:1001040002C080E197E22F5F3F4F281739075CF365
:0201140008954C
:100116008FEF81BB80E185BB80E197E220E822BBBF
:0C0126000E94720012BA0E947200F8CF12
:040132000C94000029
:040136000E948B0098
:00000001FF
