:100000000C944A000C94A0000C94A0000C94A00046
:100010000C94A0000C94A0000C94A0000C94A000E0
:100020000C94A0000C94A0000C94A0000C94A000D0
:100030000C94A0000C94A0000C94A0000C94A000C0
:100040000C94A0000C94A0000C94A0000C94A000B0
:100050000C94A0000C94A0000C94A0000C94A000A0
:100060000C94A0000C94A0000C94A0000C94A00090
:100070000C94A0000C94A0000C94A0000C94A00080
:100080000C94A0000C94A0000C94A0000100011896
:100090000001440011241FBECFEFD0E1DEBFCDBF71
:1000A000ECE8F0E040E019C0B791A79137912791B3
:1000B000079107FD0EC097918791EF01F92FE82F67
:1000C0000BBF07900D92A217B307D9F7FE011BBE15
:1000D00004C01D92A217B307E1F7E339F40721F733
:0C00E0000E9485000C947400F894FFCF7F
:1000EC0020E030E008C0EFECF7E03197F1F700C00A
:0E00FC0000002F5F3F4F28173907ACF308951F
:10010A00C0E0D0E008C0CE010E94940084EF91E0E4
:0E011A000E9476002196C630D105ACF3F1CFDD
:10012800880F991F880F991FFC01E050FF4F8081AD
:0801380081BB828182BB0895A6
:040140000C9400001B
:100144000300010003000200060002000600040090
:08015400050004000500010094
:00000001FF
