:100000000C9446000C949E000C949E000C949E0050
:100010000C949E000C949E000C949E000C949E00E8
:100020000C949E000C949E000C949E000C949E00D8
:100030000C949E000C949E000C949E000C949E00C8
:100040000C949E000C949E000C949E000C949E00B8
:100050000C949E000C949E000C949E000C949E00A8
:100060000C949E000C949E000C949E000C949E0098
:100070000C949E000C949E000C949E000C949E0088
:100080000C949E000C949E000C949E0011241FBEA4
:10009000CFEFD0E1DEBFCDBF0E947E000C945000B8
:0400A000F894FFCF02
:1000A40082309105A9F02CF4009751F0019769F082
:1000B400089584309105B1F084F00597C1F0089556
:1000C40083E081BB81E082BB089582E082BB089516
:1000D40086E081BB82E082BB089586E081BB84E038
:1000E40082BB089585E081BB84E082BB089585E0EE
:0800F40081BB81E082BB08958D
:1000FC0080E090E00E94520088E893E10E948F001B
:10010C0081E090E00E94520088E893E10E948F0009
:02011C00EFCF23
:10011E0020E030E008C0E9EFF0E03197F1F700C0E1
:0E012E0000002F5F3F4F28173907ACF30895EC
:04013C000C9400001F
:00000001FF
