:100000000C9446000C949E000C949E000C949E0050
:100010000C949E000C949E000C949E000C949E00E8
:100020000C949E000C949E000C949E000C949E00D8
:100030000C949E000C949E000C949E000C949E00C8
:100040000C949E000C949E000C949E000C949E00B8
:100050000C949E000C949E000C949E000C949E00A8
:100060000C949E000C949E000C949E000C949E0098
:100070000C949E000C949E000C949E000C949E0088
:100080000C949E000C949E000C949E0011241FBEA4
:10009000CFEFD0E1DEBFCDBF0E948F000C945000A7
:0400A000F894FFCF02
:1000A40082309105B9F02CF4009751F0019769F072
:1000B400089584309105C1F094F00597D1F0089526
:1000C40083E081BB81E082BB089583E081BB82E051
:1000D40082BB089586E081BB82E082BB089586E0FE
:1000E40081BB84E082BB089585E081BB84E082BB50
:0C00F400089585E081BB81E082BB089587
:1001000020E030E008C0EFECF7E03197F1F700C0F5
:0E01100000002F5F3F4F28173907ACF308950A
:10011E00C0E0D0E008C0CE010E94520084EF91E012
:0E012E000E9480002196C630D105ACF3F1CFBF
:04013C000C9400001F
:00000001FF
