:100000000C944A000C947E000C94A8000C940A01F5
:100010000C940A010C940A010C940A010C940A0134
:100020000C940A010C940A010C940A010C940A0124
:100030000C940A010C940A010C940A010C940A0114
:100040000C940A010C940A010C940A010C940A0104
:100050000C940A010C940A010C940A010C940A01F4
:100060000C940A010C940A010C940A010C940A01E4
:100070000C940A010C940A010C940A010C940A01D4
:100080000C940A010C940A010C940A01010001026B
:1000900000021C0011241FBECFEFD0E1DEBFCDBF98
:1000A000ECE8F0E040E019C0B791A79137912791B3
:1000B000079107FD0EC097918791EF01F92FE82F67
:1000C0000BBF07900D92A217B307D9F7FE011BBE15
:1000D00004C01D92A217B307E1F7E339F40721F733
:0C00E0000E940C010C947400F894FFCFF7
:1000EC003F065B4F666D7D077F6F777F393F797178
:1000FC001F920F920FB60F9211248F939F938091A2
:10010C000001909101018038910534F081E090E07C
:10011C009093010180930001809100019091010165
:10012C00880F991F90930101809300018091000129
:10013C009091010185BB9F918F910F900FBE0F90F5
:04014C001F90189553
:100150001F920F920FB60F9211248F939F9380914D
:10016000000190910101029734F480E890E09093AF
:10017000010180930001809100019091010195950A
:1001800087959093010180930001809100019091E7
:10019000010185BB9F918F910F900FBE0F901F9013
:0201A0001895B0
:1001A2008031910560F4092E000CAA0B84519F4FF7
:1001B200AF4FFC015A2F0E94030165BB089589E7E6
:0401C20085BB08955C
:1001C6008FEF84BBCFEFDFEF08C0CE010E94D100D6
:1001D60084EF91E00E94F4002196C131D105ACF381
:0201E600F1CF57
:1001E80020E030E008C0EFECF7E03197F1F700C00D
:0E01F80000002F5F3F4F28173907ACF3089522
:0E02060057FD03C05BBF6791089560810895A6
:040214000C94000046
:040218000E94E3005D
:02021C000100DF
:00000001FF
