:100000000C944A000C9476000C94A0000C942001EF
:100010000C9420010C9420010C9420010C942001DC
:100020000C9420010C9420010C9420010C942001CC
:100030000C9420010C9420010C9420010C942001BC
:100040000C9420010C9420010C9420010C942001AC
:100050000C9420010C9420010C9420010C9420019C
:100060000C9420010C9420010C9420010C9420018C
:100070000C9420010C9420010C9420010C9420017C
:100080000C9420010C9420010C9420010100010229
:100090000002440011241FBECFEFD0E1DEBFCDBF70
:1000A000ECE8F0E040E019C0B791A79137912791B3
:1000B000079107FD0EC097918791EF01F92FE82F67
:1000C0000BBF07900D92A217B307D9F7FE011BBE15
:1000D00004C01D92A217B307E1F7E339F40721F733
:0C00E0000E941B010C947400F894FFCFE8
:1000EC001F920F920FB60F9211248F939F938091B2
:1000FC000001909101018038910534F081E090E08D
:10010C009093010180930001809100019091010175
:10011C00880F991F90930101809300018091000139
:10012C009091010185BB9F918F910F900FBE0F9005
:04013C001F90189563
:100140001F920F920FB60F9211248F939F9380915D
:10015000000190910101029734F480E890E09093BF
:10016000010180930001809100019091010195951A
:1001700087959093010180930001809100019091F7
:10018000010185BB9F918F910F900FBE0F901F9023
:020190001895C0
:10019200982F907F95BB95B3986095BBEFECF7E0F5
:1001A2003197F1F700C0000094E095BBF0E18F9F1A
:1001B200C001112485BB85B3886085BB8FEC97E0B5
:0C01C2000197F1F700C0000015BA089585
:1001CE00982F907F95BB95B39C6095BBEFECF7E0B5
:1001DE003197F1F700C0000094E095BBF0E18F9FDE
:1001EE00C001112485BB85B38C6085BB8FEC97E075
:0C01FE000197F1F700C0000015BA089549
:10020A0082E00E94C90088E20E94C9008CE00E9434
:10021A00C90086E00E94C90080E80E94C9000895CA
:0C022A000E94050184E70E94E70008958F
:0A0236000E94150181E090E0089598
:040240000C9400001A
:020244000100B7
:00000001FF
