:100000000C944A000C9479000C94A3000C94940175
:100010000C9494010C9494010C9494010C9494010C
:100020000C9494010C9494010C9494010C949401FC
:100030000C9494010C9494010C9494010C949401EC
:100040000C9494010C9494010C9494010C949401DC
:100050000C9494010C9494010C9494010C949401CC
:100060000C9494010C9494010C9494010C949401BC
:100070000C9494010C9494010C9494010C949401AC
:100080000C9494010C9494010C94940101000102CD
:1000900000032C0011241FBECFEFD0E1DEBFCDBF87
:1000A000ECE8F0E040E019C0B791A79137912791B3
:1000B000079107FD0EC097918791EF01F92FE82F67
:1000C0000BBF07900D92A217B307D9F7FE011BBE15
:1000D00004C01D92A217B307E1F7E339F40721F733
:0C00E0000E9489010C947400F894FFCF7A
:0600EC0068656C6C6F00FA
:1000F2001F920F920FB60F9211248F939F938091AC
:100102000001909101018038910534F081E090E086
:10011200909301018093000180910001909101016F
:10012200880F991F90930101809300018091000133
:100132009091010185BB9F918F910F900FBE0F90FF
:040142001F9018955D
:100146001F920F920FB60F9211248F939F93809157
:10015600000190910101029734F480E890E09093B9
:100166000101809300018091000190910101959514
:1001760087959093010180930001809100019091F1
:10018600010185BB9F918F910F900FBE0F901F901D
:020196001895BA
:10019800CF93DF9300D000D000D0CDB7DEB78FEF7C
:1001A80084BB85BB0E947E012CEE30E040E086E0F7
:1001B800F901DE011196742F0E945601CE010196B5
:1001C8000E94640195B381E0892785BB8AEF90E09E
:0601D8000E944701F7CF71
:1001DE00CF938FEF81BB8ABB15BA1BBAC0E2C5BBEA
:1001EE000E941001C5BB0E94100180E885BB0E94D1
:1001FE00100115BA0E94100180EF85BB0E941001FC
:10020E0015BA0E94100180E685BB0E941001CF91A5
:02021E00089541
:100220008BB380648BBB8FEC97E00197F1F700C034
:1002300000008BB38F7B8BBB8FEC97E00197F1F7BE
:0602400000C0000008955B
:10024600CF93C82F85BB8BB380618BBB0E941001F7
:10025600C295C07FC5BB8BB380618BBB0E9410016A
:04026600CF91089597
:10026A00CF93C82F85BB8BB38F7E8BBB0E941001A7
:10027A00C295C07FC5BB8BB38F7E8BBB0E9410011A
:04028A00CF91089573
:10028E0020E030E008C0EFECF7E03197F1F700C066
:0E029E0000002F5F3F4F28173907ACF308957B
:1002AC00992777FD06C07BBF07900D920197E1F768
:0C02BC00089501900D920197E1F708955C
:1002C800CF93DF93EC0103C00E942301219688811C
:0A02D8008111FACFDF91CF91089554
:1002E20081E00E9435018FE99FE00197F1F700C09C
:0A02F200000080E80E943501089525
:1002FC000E94EF008FE19EE40197F1F700C000002F
:06030C000E94710108953A
:100312002FEF84E39CE0215080409040E1F700C041
:0603220000000E94CC0067
:040328000C94000031
:02032C000100CE
:00000001FF
