:100000000C944A000C9481000C94C4000C94D6010A
:100010000C94D6010C94D6010C94D6010C94D60104
:100020000C94D6010C94D6010C94D6010C94D601F4
:100030000C94D6010C94D6010C94D6010C94D601E4
:100040000C94D6010C94D6010C94D6010C94D601D4
:100050000C94D6010C94D6010C94D6010C94D601C4
:100060000C94D6010C94D6010C94D6010C94D601B4
:100070000C94D6010C94D6010C94D6010C94D601A4
:100080000C94D6010C94D6010C94D6010100010207
:100090000003B00011241FBECFEFD0E1DEBFCDBF03
:1000A000ECE8F0E040E019C0B791A79137912791B3
:1000B000079107FD0EC097918791EF01F92FE82F67
:1000C0000BBF07900D92A217B307D9F7FE011BBE15
:1000D00004C01D92A217B307E1F7E339F40721F733
:0C00E0000E94C4010C947400F894FFCF3F
:1000EC003F065B4F666D7D077F6F777F393F797178
:0600FC0068656C6C6F00EA
:100102001F920F920FB60F9211240BB60F925F93AC
:100112006F938F939F93AF93EF93FF93809100011F
:1001220090910101019690930101809300018091C9
:10013200000190910101409734F480910001909167
:10014200010199231CF489E785BB0FC0809100014E
:1001520090910101092E000CAA0B84519F4FAF4FC1
:10016200FC015A2F0E94CF0165BBFF91EF91AF9125
:100172009F918F916F915F910F900BBE0F900FBE69
:060182000F901F9018957C
:100188001F920F920FB60F9211240BB60F925F9326
:100198006F938F939F93AF93EF93FF938091000199
:1001A8009091010101979093010180930001809142
:1001B800000190910101409734F4809100019091E1
:1001C800010199231CF489E785BB0FC080910001C8
:1001D80090910101092E000CAA0B84519F4FAF4F3B
:1001E800FC015A2F0E94CF0165BBFF91EF91AF919F
:1001F8009F918F916F915F910F900BBE0F900FBEE3
:060208000F901F901895F5
:10020E00CF93DF9300D000D000D0CDB7DEB78FEF05
:10021E0084BB85BB0E94B9012CEF30E040E086E044
:10022E00F901DE011196742F0E949101CE01019603
:10023E000E949F0195B381E0892785BB8AEF90E0EC
:06024E000E948201F7CFBF
:10025400CF938FEF81BB8ABB15BA1BBAC0E2C5BB73
:100264000E944B01C5BB0E944B0180E885BB0E94E4
:100274004B0115BA0E944B0180EF85BB0E944B01D4
:1002840015BA0E944B0180E685BB0E944B01CF91B9
:020294000895CB
:100296008BB380648BBB8FEC97E00197F1F700C0BE
:1002A60000008BB38F7B8BBB8FEC97E00197F1F748
:0602B60000C000000895E5
:1002BC00CF93C82F85BB8BB380618BBB0E944B0146
:1002CC00C295C07FC5BB8BB380618BBB0E944B01B9
:0402DC00CF91089521
:1002E000CF93C82F85BB8BB38F7E8BBB0E944B01F6
:1002F000C295C07FC5BB8BB38F7E8BBB0E944B0169
:04030000CF910895FC
:1003040020E030E008C0EFECF7E03197F1F700C0EF
:0E03140000002F5F3F4F28173907ACF3089504
:10032200992777FD06C07BBF07900D920197E1F7F1
:0C033200089501900D920197E1F70895E5
:10033E00CF93DF93EC0103C00E945E01219688816A
:0A034E008111FACFDF91CF910895DD
:1003580081E00E9470018FE99FE00197F1F700C0EA
:0A036800000080E80E947001089573
:100372000E942A018FE19EE40197F1F700C000007C
:060382000E94AC01089589
:100388002FEF84E39CE0215080409040E1F700C0CB
:0603980000000E940701B5
:0E039E0057FD03C05BBF67910895608108950D
:0403AC000C940000AD
:0203B00001004A
:00000001FF
