:100000000C9446000C9498000C9498000C94980062
:100010000C9498000C9498000C9498000C94980000
:100020000C9498000C9498000C9498000C949800F0
:100030000C9498000C9498000C9498000C949800E0
:100040000C9498000C9498000C9498000C949800D0
:100050000C9498000C9498000C9498000C949800C0
:100060000C9498000C9498000C9498000C949800B0
:100070000C9498000C9498000C9498000C949800A0
:100080000C9498000C9498000C94980011241FBEB6
:10009000CFEFD0E1DEBFCDBFECE8F0E040E019C02B
:1000A000B791A79137912791079107FD0EC09791BE
:1000B0008791EF01F92FE82F0BBF07900D92A21740
:1000C000B307D9F7FE011BBE04C01D92A217B307E8
:1000D000E1F7EC38F40721F70E948E000C947000D1
:0400E000F894FFCFC2
:1000E40020E030E008C0EFECF7E03197F1F700C012
:0E00F40000002F5F3F4F28173907ACF3089527
:1001020081EE98E097BD86BD80E794E09BBD8ABDF5
:0A01120082E88FBD8AE18EBD0895DA
:10011C008FEF87BB8ABB0E94810080ED97E00E9425
:04012C007200FBCF93
:040130000C9400002B
:00000001FF
